{
  "contractName": "AddCompany",
  "abi": [
    {
      "inputs": [],
      "stateMutability": "nonpayable",
      "type": "constructor"
    },
    {
      "anonymous": false,
      "inputs": [
        {
          "indexed": false,
          "internalType": "string",
          "name": "id",
          "type": "string"
        },
        {
          "indexed": false,
          "internalType": "address",
          "name": "companyAddress",
          "type": "address"
        }
      ],
      "name": "CompanyAdded",
      "type": "event"
    },
    {
      "inputs": [
        {
          "internalType": "uint256",
          "name": "",
          "type": "uint256"
        }
      ],
      "name": "companies",
      "outputs": [
        {
          "internalType": "string",
          "name": "id",
          "type": "string"
        },
        {
          "internalType": "address",
          "name": "companyAddress",
          "type": "address"
        }
      ],
      "stateMutability": "view",
      "type": "function",
      "constant": true
    },
    {
      "inputs": [],
      "name": "owner",
      "outputs": [
        {
          "internalType": "address",
          "name": "",
          "type": "address"
        }
      ],
      "stateMutability": "view",
      "type": "function",
      "constant": true
    },
    {
      "inputs": [
        {
          "internalType": "string",
          "name": "_id",
          "type": "string"
        },
        {
          "internalType": "address",
          "name": "_companyAddress",
          "type": "address"
        }
      ],
      "name": "addCompany",
      "outputs": [],
      "stateMutability": "nonpayable",
      "type": "function"
    },
    {
      "inputs": [],
      "name": "getCompanies",
      "outputs": [
        {
          "components": [
            {
              "internalType": "string",
              "name": "id",
              "type": "string"
            },
            {
              "internalType": "address",
              "name": "companyAddress",
              "type": "address"
            }
          ],
          "internalType": "struct AddCompany.Company[]",
          "name": "",
          "type": "tuple[]"
        }
      ],
      "stateMutability": "view",
      "type": "function",
      "constant": true
    }
  ],
  "bytecode": "0x608060405234801561001057600080fd5b5033600160006101000a81548173ffffffffffffffffffffffffffffffffffffffff021916908373ffffffffffffffffffffffffffffffffffffffff160217905550610b4a806100616000396000f3fe608060405234801561001057600080fd5b506004361061004c5760003560e01c80630c0b6691146100515780632813d19d1461006f57806338f03269146100a05780638da5cb5b146100bc575b600080fd5b6100596100da565b6040516100669190610728565b60405180910390f35b61008960048036038101906100849190610794565b610221565b60405161009792919061081a565b60405180910390f35b6100ba60048036038101906100b591906109ab565b6102fd565b005b6100c4610486565b6040516100d19190610a07565b60405180910390f35b60606000805480602002602001604051908101604052809291908181526020016000905b82821015610218578382906000526020600020906002020160405180604001604052908160008201805461013190610a51565b80601f016020809104026020016040519081016040528092919081815260200182805461015d90610a51565b80156101aa5780601f1061017f576101008083540402835291602001916101aa565b820191906000526020600020905b81548152906001019060200180831161018d57829003601f168201915b505050505081526020016001820160009054906101000a900473ffffffffffffffffffffffffffffffffffffffff1673ffffffffffffffffffffffffffffffffffffffff1673ffffffffffffffffffffffffffffffffffffffff1681525050815260200190600101906100fe565b50505050905090565b6000818154811061023157600080fd5b906000526020600020906002020160009150905080600001805461025490610a51565b80601f016020809104026020016040519081016040528092919081815260200182805461028090610a51565b80156102cd5780601f106102a2576101008083540402835291602001916102cd565b820191906000526020600020905b8154815290600101906020018083116102b057829003601f168201915b5050505050908060010160009054906101000a900473ffffffffffffffffffffffffffffffffffffffff16905082565b600160009054906101000a900473ffffffffffffffffffffffffffffffffffffffff1673ffffffffffffffffffffffffffffffffffffffff163373ffffffffffffffffffffffffffffffffffffffff161461038d576040517f08c379a000000000000000000000000000000000000000000000000000000000815260040161038490610af4565b60405180910390fd5b600060405180604001604052808481526020018373ffffffffffffffffffffffffffffffffffffffff16815250908060018154018082558091505060019003906000526020600020906002020160009091909190915060008201518160000190805190602001906103ff9291906104ac565b5060208201518160010160006101000a81548173ffffffffffffffffffffffffffffffffffffffff021916908373ffffffffffffffffffffffffffffffffffffffff16021790555050507fa5d3ea04e0b5fb57568543f84fc3dd9adbc7b0a133e72dc580d9bfbaf3fa3a14828260405161047a92919061081a565b60405180910390a15050565b600160009054906101000a900473ffffffffffffffffffffffffffffffffffffffff1681565b8280546104b890610a51565b90600052602060002090601f0160209004810192826104da5760008555610521565b82601f106104f357805160ff1916838001178555610521565b82800160010185558215610521579182015b82811115610520578251825591602001919060010190610505565b5b50905061052e9190610532565b5090565b5b8082111561054b576000816000905550600101610533565b5090565b600081519050919050565b600082825260208201905092915050565b6000819050602082019050919050565b600081519050919050565b600082825260208201905092915050565b60005b838110156105b557808201518184015260208101905061059a565b838111156105c4576000848401525b50505050565b6000601f19601f8301169050919050565b60006105e68261057b565b6105f08185610586565b9350610600818560208601610597565b610609816105ca565b840191505092915050565b600073ffffffffffffffffffffffffffffffffffffffff82169050919050565b600061063f82610614565b9050919050565b61064f81610634565b82525050565b6000604083016000830151848203600086015261067282826105db565b91505060208301516106876020860182610646565b508091505092915050565b600061069e8383610655565b905092915050565b6000602082019050919050565b60006106be8261054f565b6106c8818561055a565b9350836020820285016106da8561056b565b8060005b8581101561071657848403895281516106f78582610692565b9450610702836106a6565b925060208a019950506001810190506106de565b50829750879550505050505092915050565b6000602082019050818103600083015261074281846106b3565b905092915050565b6000604051905090565b600080fd5b600080fd5b6000819050919050565b6107718161075e565b811461077c57600080fd5b50565b60008135905061078e81610768565b92915050565b6000602082840312156107aa576107a9610754565b5b60006107b88482850161077f565b91505092915050565b600082825260208201905092915050565b60006107dd8261057b565b6107e781856107c1565b93506107f7818560208601610597565b610800816105ca565b840191505092915050565b61081481610634565b82525050565b6000604082019050818103600083015261083481856107d2565b9050610843602083018461080b565b9392505050565b600080fd5b600080fd5b7f4e487b7100000000000000000000000000000000000000000000000000000000600052604160045260246000fd5b61088c826105ca565b810181811067ffffffffffffffff821117156108ab576108aa610854565b5b80604052505050565b60006108be61074a565b90506108ca8282610883565b919050565b600067ffffffffffffffff8211156108ea576108e9610854565b5b6108f3826105ca565b9050602081019050919050565b82818337600083830152505050565b600061092261091d846108cf565b6108b4565b90508281526020810184848401111561093e5761093d61084f565b5b610949848285610900565b509392505050565b600082601f8301126109665761096561084a565b5b813561097684826020860161090f565b91505092915050565b61098881610634565b811461099357600080fd5b50565b6000813590506109a58161097f565b92915050565b600080604083850312156109c2576109c1610754565b5b600083013567ffffffffffffffff8111156109e0576109df610759565b5b6109ec85828601610951565b92505060206109fd85828601610996565b9150509250929050565b6000602082019050610a1c600083018461080b565b92915050565b7f4e487b7100000000000000000000000000000000000000000000000000000000600052602260045260246000fd5b60006002820490506001821680610a6957607f821691505b602082108103610a7c57610a7b610a22565b5b50919050565b7f4f6e6c7920746865206f776e65722063616e2063616c6c20746869732066756e60008201527f6374696f6e2e0000000000000000000000000000000000000000000000000000602082015250565b6000610ade6026836107c1565b9150610ae982610a82565b604082019050919050565b60006020820190508181036000830152610b0d81610ad1565b905091905056fea2646970667358221220afec480f14ff796223252ef1c59a5ab91d56b227d6737a5085bc1e4e9ed5c69764736f6c634300080d0033",
  "immutableReferences": {},
  "source": "// SPDX-License-Identifier: MIT\r\npragma solidity >=0.7.0 <0.9.0;\r\n\r\ncontract AddCompany {\r\n    struct Company {\r\n        string id;\r\n        address companyAddress;\r\n    }\r\n\r\n    Company[] public companies;\r\n    address public owner;\r\n\r\n    event CompanyAdded(string id, address companyAddress);\r\n\r\n    modifier onlyOwner() {\r\n        require(msg.sender == owner, \"Only the owner can call this function.\");\r\n        _;\r\n    }\r\n\r\n    constructor() {\r\n        owner = msg.sender;\r\n    }\r\n\r\n    function addCompany(string memory _id, address _companyAddress) public onlyOwner {\r\n        companies.push(Company(_id, _companyAddress));\r\n        emit CompanyAdded(_id, _companyAddress);\r\n    }\r\n\r\n    function getCompanies() public view returns (Company[] memory) {\r\n        return companies;\r\n    }\r\n}\r\n",
  "sourcePath": "C:\\Users\\Hassan\\Documents\\BLOCK2\\contracts\\AddCompany.sol",
  "compiler": {
    "name": "solc",
    "version": "0.8.13+commit.abaa5c0e.Emscripten.clang"
  },
  "schemaVersion": "3.4.16",
  "updatedAt": "2024-05-20T01:38:56.382Z",
  "networkType": "ethereum",
  "devdoc": {
    "kind": "dev",
    "methods": {},
    "version": 1
  },
  "userdoc": {
    "kind": "user",
    "methods": {},
    "version": 1
  }
}