{
  "contractName": "BuyStocks",
  "abi": [
    {
      "anonymous": false,
      "inputs": [
        {
          "indexed": true,
          "internalType": "address",
          "name": "buyer",
          "type": "address"
        },
        {
          "indexed": true,
          "internalType": "address",
          "name": "company",
          "type": "address"
        },
        {
          "indexed": false,
          "internalType": "uint256",
          "name": "amount",
          "type": "uint256"
        },
        {
          "indexed": false,
          "internalType": "uint256",
          "name": "price",
          "type": "uint256"
        }
      ],
      "name": "StockBought",
      "type": "event"
    },
    {
      "inputs": [
        {
          "internalType": "address",
          "name": "",
          "type": "address"
        }
      ],
      "name": "companies",
      "outputs": [
        {
          "internalType": "string",
          "name": "id",
          "type": "string"
        },
        {
          "internalType": "uint256",
          "name": "stockPrice",
          "type": "uint256"
        },
        {
          "internalType": "uint256",
          "name": "totalStocks",
          "type": "uint256"
        }
      ],
      "stateMutability": "view",
      "type": "function",
      "constant": true
    },
    {
      "inputs": [
        {
          "internalType": "uint256",
          "name": "",
          "type": "uint256"
        }
      ],
      "name": "companyAddresses",
      "outputs": [
        {
          "internalType": "address",
          "name": "",
          "type": "address"
        }
      ],
      "stateMutability": "view",
      "type": "function",
      "constant": true
    },
    {
      "inputs": [
        {
          "internalType": "address",
          "name": "",
          "type": "address"
        },
        {
          "internalType": "address",
          "name": "",
          "type": "address"
        }
      ],
      "name": "stocks",
      "outputs": [
        {
          "internalType": "address",
          "name": "owner",
          "type": "address"
        },
        {
          "internalType": "uint256",
          "name": "amount",
          "type": "uint256"
        }
      ],
      "stateMutability": "view",
      "type": "function",
      "constant": true
    },
    {
      "inputs": [
        {
          "internalType": "address",
          "name": "_companyAddress",
          "type": "address"
        },
        {
          "internalType": "string",
          "name": "_id",
          "type": "string"
        },
        {
          "internalType": "uint256",
          "name": "_stockPrice",
          "type": "uint256"
        },
        {
          "internalType": "uint256",
          "name": "_totalStocks",
          "type": "uint256"
        }
      ],
      "name": "addCompany",
      "outputs": [],
      "stateMutability": "nonpayable",
      "type": "function"
    },
    {
      "inputs": [
        {
          "internalType": "address",
          "name": "_companyAddress",
          "type": "address"
        },
        {
          "internalType": "uint256",
          "name": "_amount",
          "type": "uint256"
        }
      ],
      "name": "buyStocks",
      "outputs": [],
      "stateMutability": "payable",
      "type": "function",
      "payable": true
    },
    {
      "inputs": [
        {
          "internalType": "address",
          "name": "_companyAddress",
          "type": "address"
        },
        {
          "internalType": "address",
          "name": "_owner",
          "type": "address"
        }
      ],
      "name": "getStocks",
      "outputs": [
        {
          "internalType": "uint256",
          "name": "",
          "type": "uint256"
        }
      ],
      "stateMutability": "view",
      "type": "function",
      "constant": true
    },
    {
      "inputs": [],
      "name": "getAllCompanies",
      "outputs": [
        {
          "internalType": "address[]",
          "name": "",
          "type": "address[]"
        }
      ],
      "stateMutability": "view",
      "type": "function",
      "constant": true
    }
  ],
  "bytecode": "0x608060405234801561001057600080fd5b506110c9806100206000396000f3fe6080604052600436106100705760003560e01c80639128b2921161004e5780639128b2921461011d5780639968784514610146578063cdb90e3e14610183578063faf020f31461019f57610070565b8063355e6ce814610075578063408bf4c3146100b457806341e9ef53146100df575b600080fd5b34801561008157600080fd5b5061009c600480360381019061009791906108fd565b6101dc565b6040516100ab939291906109dc565b60405180910390f35b3480156100c057600080fd5b506100c961028e565b6040516100d69190610ad8565b60405180910390f35b3480156100eb57600080fd5b5061010660048036038101906101019190610afa565b61031c565b604051610114929190610b49565b60405180910390f35b34801561012957600080fd5b50610144600480360381019061013f9190610cd3565b61036d565b005b34801561015257600080fd5b5061016d60048036038101906101689190610d56565b610463565b60405161017a9190610d83565b60405180910390f35b61019d60048036038101906101989190610d9e565b6104a2565b005b3480156101ab57600080fd5b506101c660048036038101906101c19190610afa565b61075e565b6040516101d39190610dde565b60405180910390f35b60006020528060005260406000206000915090508060000180546101ff90610e28565b80601f016020809104026020016040519081016040528092919081815260200182805461022b90610e28565b80156102785780601f1061024d57610100808354040283529160200191610278565b820191906000526020600020905b81548152906001019060200180831161025b57829003601f168201915b5050505050908060010154908060020154905083565b6060600280548060200260200160405190810160405280929190818152602001828054801561031257602002820191906000526020600020905b8160009054906101000a900473ffffffffffffffffffffffffffffffffffffffff1673ffffffffffffffffffffffffffffffffffffffff16815260200190600101908083116102c8575b5050505050905090565b6001602052816000526040600020602052806000526040600020600091509150508060000160009054906101000a900473ffffffffffffffffffffffffffffffffffffffff16908060010154905082565b6040518060600160405280848152602001838152602001828152506000808673ffffffffffffffffffffffffffffffffffffffff1673ffffffffffffffffffffffffffffffffffffffff16815260200190815260200160002060008201518160000190805190602001906103e29291906107e8565b5060208201518160010155604082015181600201559050506002849080600181540180825580915050600190039060005260206000200160009091909190916101000a81548173ffffffffffffffffffffffffffffffffffffffff021916908373ffffffffffffffffffffffffffffffffffffffff16021790555050505050565b6002818154811061047357600080fd5b906000526020600020016000915054906101000a900473ffffffffffffffffffffffffffffffffffffffff1681565b60008060008473ffffffffffffffffffffffffffffffffffffffff1673ffffffffffffffffffffffffffffffffffffffff1681526020019081526020016000209050818160020154101561052b576040517f08c379a000000000000000000000000000000000000000000000000000000000815260040161052290610ea5565b60405180910390fd5b600082826001015461053d9190610ef4565b905080341015610582576040517f08c379a000000000000000000000000000000000000000000000000000000000815260040161057990610fc0565b60405180910390fd5b82600160008673ffffffffffffffffffffffffffffffffffffffff1673ffffffffffffffffffffffffffffffffffffffff16815260200190815260200160002060003373ffffffffffffffffffffffffffffffffffffffff1673ffffffffffffffffffffffffffffffffffffffff16815260200190815260200160002060010160008282546106119190610fe0565b9250508190555033600160008673ffffffffffffffffffffffffffffffffffffffff1673ffffffffffffffffffffffffffffffffffffffff16815260200190815260200160002060003373ffffffffffffffffffffffffffffffffffffffff1673ffffffffffffffffffffffffffffffffffffffff16815260200190815260200160002060000160006101000a81548173ffffffffffffffffffffffffffffffffffffffff021916908373ffffffffffffffffffffffffffffffffffffffff160217905550828260020160008282546106ea9190611036565b925050819055508373ffffffffffffffffffffffffffffffffffffffff163373ffffffffffffffffffffffffffffffffffffffff167f84f79ec885c0e24b5af9422280864e2eb0afaee4d5dcd029f227210ef2f5b8ce858460405161075092919061106a565b60405180910390a350505050565b6000600160008473ffffffffffffffffffffffffffffffffffffffff1673ffffffffffffffffffffffffffffffffffffffff16815260200190815260200160002060008373ffffffffffffffffffffffffffffffffffffffff1673ffffffffffffffffffffffffffffffffffffffff16815260200190815260200160002060010154905092915050565b8280546107f490610e28565b90600052602060002090601f016020900481019282610816576000855561085d565b82601f1061082f57805160ff191683800117855561085d565b8280016001018555821561085d579182015b8281111561085c578251825591602001919060010190610841565b5b50905061086a919061086e565b5090565b5b8082111561088757600081600090555060010161086f565b5090565b6000604051905090565b600080fd5b600080fd5b600073ffffffffffffffffffffffffffffffffffffffff82169050919050565b60006108ca8261089f565b9050919050565b6108da816108bf565b81146108e557600080fd5b50565b6000813590506108f7816108d1565b92915050565b60006020828403121561091357610912610895565b5b6000610921848285016108e8565b91505092915050565b600081519050919050565b600082825260208201905092915050565b60005b83811015610964578082015181840152602081019050610949565b83811115610973576000848401525b50505050565b6000601f19601f8301169050919050565b60006109958261092a565b61099f8185610935565b93506109af818560208601610946565b6109b881610979565b840191505092915050565b6000819050919050565b6109d6816109c3565b82525050565b600060608201905081810360008301526109f6818661098a565b9050610a0560208301856109cd565b610a1260408301846109cd565b949350505050565b600081519050919050565b600082825260208201905092915050565b6000819050602082019050919050565b610a4f816108bf565b82525050565b6000610a618383610a46565b60208301905092915050565b6000602082019050919050565b6000610a8582610a1a565b610a8f8185610a25565b9350610a9a83610a36565b8060005b83811015610acb578151610ab28882610a55565b9750610abd83610a6d565b925050600181019050610a9e565b5085935050505092915050565b60006020820190508181036000830152610af28184610a7a565b905092915050565b60008060408385031215610b1157610b10610895565b5b6000610b1f858286016108e8565b9250506020610b30858286016108e8565b9150509250929050565b610b43816108bf565b82525050565b6000604082019050610b5e6000830185610b3a565b610b6b60208301846109cd565b9392505050565b600080fd5b600080fd5b7f4e487b7100000000000000000000000000000000000000000000000000000000600052604160045260246000fd5b610bb482610979565b810181811067ffffffffffffffff82111715610bd357610bd2610b7c565b5b80604052505050565b6000610be661088b565b9050610bf28282610bab565b919050565b600067ffffffffffffffff821115610c1257610c11610b7c565b5b610c1b82610979565b9050602081019050919050565b82818337600083830152505050565b6000610c4a610c4584610bf7565b610bdc565b905082815260208101848484011115610c6657610c65610b77565b5b610c71848285610c28565b509392505050565b600082601f830112610c8e57610c8d610b72565b5b8135610c9e848260208601610c37565b91505092915050565b610cb0816109c3565b8114610cbb57600080fd5b50565b600081359050610ccd81610ca7565b92915050565b60008060008060808587031215610ced57610cec610895565b5b6000610cfb878288016108e8565b945050602085013567ffffffffffffffff811115610d1c57610d1b61089a565b5b610d2887828801610c79565b9350506040610d3987828801610cbe565b9250506060610d4a87828801610cbe565b91505092959194509250565b600060208284031215610d6c57610d6b610895565b5b6000610d7a84828501610cbe565b91505092915050565b6000602082019050610d986000830184610b3a565b92915050565b60008060408385031215610db557610db4610895565b5b6000610dc3858286016108e8565b9250506020610dd485828601610cbe565b9150509250929050565b6000602082019050610df360008301846109cd565b92915050565b7f4e487b7100000000000000000000000000000000000000000000000000000000600052602260045260246000fd5b60006002820490506001821680610e4057607f821691505b602082108103610e5357610e52610df9565b5b50919050565b7f4e6f7420656e6f7567682073746f636b7320617661696c61626c652e00000000600082015250565b6000610e8f601c83610935565b9150610e9a82610e59565b602082019050919050565b60006020820190508181036000830152610ebe81610e82565b9050919050565b7f4e487b7100000000000000000000000000000000000000000000000000000000600052601160045260246000fd5b6000610eff826109c3565b9150610f0a836109c3565b9250817fffffffffffffffffffffffffffffffffffffffffffffffffffffffffffffffff0483118215151615610f4357610f42610ec5565b5b828202905092915050565b7f496e73756666696369656e742066756e647320746f206275792073746f636b7360008201527f2e00000000000000000000000000000000000000000000000000000000000000602082015250565b6000610faa602183610935565b9150610fb582610f4e565b604082019050919050565b60006020820190508181036000830152610fd981610f9d565b9050919050565b6000610feb826109c3565b9150610ff6836109c3565b9250827fffffffffffffffffffffffffffffffffffffffffffffffffffffffffffffffff0382111561102b5761102a610ec5565b5b828201905092915050565b6000611041826109c3565b915061104c836109c3565b92508282101561105f5761105e610ec5565b5b828203905092915050565b600060408201905061107f60008301856109cd565b61108c60208301846109cd565b939250505056fea26469706673582212201d8f76339ad6dd650b30d54dc15b49222e4efe5da2f5b43793cd826f6999c6f764736f6c634300080d0033",
  "immutableReferences": {},
  "source": "// SPDX-License-Identifier: MIT\r\npragma solidity >=0.7.0 <0.9.0;\r\n\r\ncontract BuyStocks {\r\n    struct Stock {\r\n        address owner;\r\n        uint256 amount;\r\n    }\r\n\r\n    struct Company {\r\n        string id;\r\n        uint256 stockPrice;\r\n        uint256 totalStocks;\r\n    }\r\n\r\n    mapping(address => Company) public companies;\r\n    mapping(address => mapping(address => Stock)) public stocks; // companyAddress => userAddress => Stock\r\n    address[] public companyAddresses; // Track company addresses\r\n\r\n    event StockBought(address indexed buyer, address indexed company, uint256 amount, uint256 price);\r\n\r\n    function addCompany(address _companyAddress, string memory _id, uint256 _stockPrice, uint256 _totalStocks) public {\r\n        companies[_companyAddress] = Company(_id, _stockPrice, _totalStocks);\r\n        companyAddresses.push(_companyAddress);\r\n    }\r\n\r\n    function buyStocks(address _companyAddress, uint256 _amount) public payable {\r\n        Company storage company = companies[_companyAddress];\r\n        require(company.totalStocks >= _amount, \"Not enough stocks available.\");\r\n        uint256 totalPrice = company.stockPrice * _amount;\r\n        require(msg.value >= totalPrice, \"Insufficient funds to buy stocks.\");\r\n\r\n        stocks[_companyAddress][msg.sender].amount += _amount;\r\n        stocks[_companyAddress][msg.sender].owner = msg.sender;\r\n        company.totalStocks -= _amount;\r\n\r\n        emit StockBought(msg.sender, _companyAddress, _amount, totalPrice);\r\n    }\r\n\r\n    function getStocks(address _companyAddress, address _owner) public view returns (uint256) {\r\n        return stocks[_companyAddress][_owner].amount;\r\n    }\r\n\r\n    function getAllCompanies() public view returns (address[] memory) {\r\n        return companyAddresses;\r\n    }\r\n}\r\n",
  "sourcePath": "C:\\Users\\Hassan\\Documents\\BLOCK2\\contracts\\BuyStocks.sol",
  "compiler": {
    "name": "solc",
    "version": "0.8.13+commit.abaa5c0e.Emscripten.clang"
  },
  "schemaVersion": "3.4.16",
  "updatedAt": "2024-05-20T01:38:56.567Z",
  "networkType": "ethereum",
  "devdoc": {
    "kind": "dev",
    "methods": {},
    "version": 1
  },
  "userdoc": {
    "kind": "user",
    "methods": {},
    "version": 1
  }
}