{
  "contractName": "ChangeStockPrice",
  "abi": [
    {
      "anonymous": false,
      "inputs": [
        {
          "indexed": false,
          "internalType": "address",
          "name": "owner",
          "type": "address"
        },
        {
          "indexed": false,
          "internalType": "uint256",
          "name": "newPrice",
          "type": "uint256"
        }
      ],
      "name": "StockPriceChanged",
      "type": "event"
    },
    {
      "inputs": [
        {
          "internalType": "address",
          "name": "",
          "type": "address"
        }
      ],
      "name": "prices",
      "outputs": [
        {
          "internalType": "address",
          "name": "owner",
          "type": "address"
        },
        {
          "internalType": "uint256",
          "name": "price",
          "type": "uint256"
        }
      ],
      "stateMutability": "view",
      "type": "function",
      "constant": true
    },
    {
      "inputs": [
        {
          "internalType": "uint256",
          "name": "_newPrice",
          "type": "uint256"
        }
      ],
      "name": "changePrice",
      "outputs": [],
      "stateMutability": "nonpayable",
      "type": "function"
    },
    {
      "inputs": [
        {
          "internalType": "address",
          "name": "_owner",
          "type": "address"
        }
      ],
      "name": "getStockPrice",
      "outputs": [
        {
          "internalType": "uint256",
          "name": "",
          "type": "uint256"
        }
      ],
      "stateMutability": "view",
      "type": "function",
      "constant": true
    }
  ],
  "bytecode": "0x608060405234801561001057600080fd5b506103df806100206000396000f3fe608060405234801561001057600080fd5b50600436106100415760003560e01c80633d3325e014610046578063a2b40d1914610076578063cfed246b14610092575b600080fd5b610060600480360381019061005b91906102b7565b6100c3565b60405161006d91906102fd565b60405180910390f35b610090600480360381019061008b9190610344565b61010e565b005b6100ac60048036038101906100a791906102b7565b610210565b6040516100ba929190610380565b60405180910390f35b60008060008373ffffffffffffffffffffffffffffffffffffffff1673ffffffffffffffffffffffffffffffffffffffff168152602001908152602001600020600101549050919050565b806000803373ffffffffffffffffffffffffffffffffffffffff1673ffffffffffffffffffffffffffffffffffffffff16815260200190815260200160002060010181905550336000803373ffffffffffffffffffffffffffffffffffffffff1673ffffffffffffffffffffffffffffffffffffffff16815260200190815260200160002060000160006101000a81548173ffffffffffffffffffffffffffffffffffffffff021916908373ffffffffffffffffffffffffffffffffffffffff1602179055507ff42b17be015fe901886ae163139ab115af0692c76caa44a200c80140693a7a913382604051610205929190610380565b60405180910390a150565b60006020528060005260406000206000915090508060000160009054906101000a900473ffffffffffffffffffffffffffffffffffffffff16908060010154905082565b600080fd5b600073ffffffffffffffffffffffffffffffffffffffff82169050919050565b600061028482610259565b9050919050565b61029481610279565b811461029f57600080fd5b50565b6000813590506102b18161028b565b92915050565b6000602082840312156102cd576102cc610254565b5b60006102db848285016102a2565b91505092915050565b6000819050919050565b6102f7816102e4565b82525050565b600060208201905061031260008301846102ee565b92915050565b610321816102e4565b811461032c57600080fd5b50565b60008135905061033e81610318565b92915050565b60006020828403121561035a57610359610254565b5b60006103688482850161032f565b91505092915050565b61037a81610279565b82525050565b60006040820190506103956000830185610371565b6103a260208301846102ee565b939250505056fea264697066735822122006dba48f590520e0344e2889a5b23d72a1e6e18782427a8bbfcf5b48e08caed564736f6c634300080d0033",
  "immutableReferences": {},
  "source": "// SPDX-License-Identifier: MIT\r\npragma solidity >=0.7.0 <0.9.0;\r\n\r\ncontract ChangeStockPrice {\r\n    struct StockPrice {\r\n        address owner;\r\n        uint256 price;\r\n    }\r\n\r\n    mapping(address => StockPrice) public prices;\r\n\r\n    event StockPriceChanged(address owner, uint256 newPrice);\r\n\r\n    function changePrice(uint256 _newPrice) public {\r\n        prices[msg.sender].price = _newPrice;\r\n        prices[msg.sender].owner = msg.sender;\r\n\r\n        emit StockPriceChanged(msg.sender, _newPrice);\r\n    }\r\n\r\n    function getStockPrice(address _owner) public view returns (uint256) {\r\n        return prices[_owner].price;\r\n    }\r\n}\r\n",
  "sourcePath": "C:\\Users\\Hassan\\Documents\\BLOCK2\\contracts\\ChangeStockPrice.sol",
  "compiler": {
    "name": "solc",
    "version": "0.8.13+commit.abaa5c0e.Emscripten.clang"
  },
  "schemaVersion": "3.4.16",
  "updatedAt": "2024-05-20T01:38:56.723Z",
  "networkType": "ethereum",
  "devdoc": {
    "kind": "dev",
    "methods": {},
    "version": 1
  },
  "userdoc": {
    "kind": "user",
    "methods": {},
    "version": 1
  }
}