{
  "contractName": "ListStocks",
  "abi": [
    {
      "anonymous": false,
      "inputs": [
        {
          "indexed": true,
          "internalType": "address",
          "name": "owner",
          "type": "address"
        },
        {
          "indexed": false,
          "internalType": "uint256",
          "name": "amount",
          "type": "uint256"
        },
        {
          "indexed": false,
          "internalType": "uint256",
          "name": "price",
          "type": "uint256"
        }
      ],
      "name": "DebugListing",
      "type": "event"
    },
    {
      "anonymous": false,
      "inputs": [
        {
          "indexed": false,
          "internalType": "address",
          "name": "owner",
          "type": "address"
        },
        {
          "indexed": false,
          "internalType": "uint256",
          "name": "amount",
          "type": "uint256"
        },
        {
          "indexed": false,
          "internalType": "uint256",
          "name": "price",
          "type": "uint256"
        }
      ],
      "name": "StockListed",
      "type": "event"
    },
    {
      "inputs": [
        {
          "internalType": "address",
          "name": "",
          "type": "address"
        }
      ],
      "name": "listings",
      "outputs": [
        {
          "internalType": "address",
          "name": "owner",
          "type": "address"
        },
        {
          "internalType": "uint256",
          "name": "amount",
          "type": "uint256"
        },
        {
          "internalType": "uint256",
          "name": "price",
          "type": "uint256"
        }
      ],
      "stateMutability": "view",
      "type": "function",
      "constant": true
    },
    {
      "inputs": [
        {
          "internalType": "uint256",
          "name": "_amount",
          "type": "uint256"
        },
        {
          "internalType": "uint256",
          "name": "_price",
          "type": "uint256"
        }
      ],
      "name": "listStocks",
      "outputs": [],
      "stateMutability": "nonpayable",
      "type": "function"
    },
    {
      "inputs": [
        {
          "internalType": "address",
          "name": "_owner",
          "type": "address"
        }
      ],
      "name": "getStockListing",
      "outputs": [
        {
          "components": [
            {
              "internalType": "address",
              "name": "owner",
              "type": "address"
            },
            {
              "internalType": "uint256",
              "name": "amount",
              "type": "uint256"
            },
            {
              "internalType": "uint256",
              "name": "price",
              "type": "uint256"
            }
          ],
          "internalType": "struct ListStocks.StockListing",
          "name": "",
          "type": "tuple"
        }
      ],
      "stateMutability": "view",
      "type": "function",
      "constant": true
    }
  ],
  "bytecode": "0x608060405234801561001057600080fd5b50610598806100206000396000f3fe608060405234801561001057600080fd5b50600436106100415760003560e01c8063451b011b1461004657806365d96c8214610076578063df97b84c146100a8575b600080fd5b610060600480360381019061005b91906103c6565b6100c4565b60405161006d919061045d565b60405180910390f35b610090600480360381019061008b91906103c6565b610186565b60405161009f93929190610496565b60405180910390f35b6100c260048036038101906100bd91906104f9565b6101d0565b005b6100cc61032c565b6000808373ffffffffffffffffffffffffffffffffffffffff1673ffffffffffffffffffffffffffffffffffffffff1681526020019081526020016000206040518060600160405290816000820160009054906101000a900473ffffffffffffffffffffffffffffffffffffffff1673ffffffffffffffffffffffffffffffffffffffff1673ffffffffffffffffffffffffffffffffffffffff168152602001600182015481526020016002820154815250509050919050565b60006020528060005260406000206000915090508060000160009054906101000a900473ffffffffffffffffffffffffffffffffffffffff16908060010154908060020154905083565b60405180606001604052803373ffffffffffffffffffffffffffffffffffffffff168152602001838152602001828152506000803373ffffffffffffffffffffffffffffffffffffffff1673ffffffffffffffffffffffffffffffffffffffff16815260200190815260200160002060008201518160000160006101000a81548173ffffffffffffffffffffffffffffffffffffffff021916908373ffffffffffffffffffffffffffffffffffffffff16021790555060208201518160010155604082015181600201559050507fa3bd007f2aae53a2ca4502f283047b4d78bd86cdf37d52c331662de7403ddcc93383836040516102d093929190610496565b60405180910390a13373ffffffffffffffffffffffffffffffffffffffff167f2195fe6a9c27a347730c45b8ec2e47532005cf4db6383a40971baef70bf413aa8383604051610320929190610539565b60405180910390a25050565b6040518060600160405280600073ffffffffffffffffffffffffffffffffffffffff16815260200160008152602001600081525090565b600080fd5b600073ffffffffffffffffffffffffffffffffffffffff82169050919050565b600061039382610368565b9050919050565b6103a381610388565b81146103ae57600080fd5b50565b6000813590506103c08161039a565b92915050565b6000602082840312156103dc576103db610363565b5b60006103ea848285016103b1565b91505092915050565b6103fc81610388565b82525050565b6000819050919050565b61041581610402565b82525050565b60608201600082015161043160008501826103f3565b506020820151610444602085018261040c565b506040820151610457604085018261040c565b50505050565b6000606082019050610472600083018461041b565b92915050565b61048181610388565b82525050565b61049081610402565b82525050565b60006060820190506104ab6000830186610478565b6104b86020830185610487565b6104c56040830184610487565b949350505050565b6104d681610402565b81146104e157600080fd5b50565b6000813590506104f3816104cd565b92915050565b600080604083850312156105105761050f610363565b5b600061051e858286016104e4565b925050602061052f858286016104e4565b9150509250929050565b600060408201905061054e6000830185610487565b61055b6020830184610487565b939250505056fea2646970667358221220198f65bd9072a6d5c16528428ecdaf59acbc0daa9d575cde491293fe3d2d72c564736f6c634300080d0033",
  "immutableReferences": {},
  "source": "// SPDX-License-Identifier: MIT\r\npragma solidity >=0.7.0 <0.9.0;\r\n\r\ncontract ListStocks {\r\n    struct StockListing {\r\n        address owner;\r\n        uint256 amount;\r\n        uint256 price;\r\n    }\r\n\r\n    mapping(address => StockListing) public listings;\r\n\r\n    event StockListed(address owner, uint256 amount, uint256 price);\r\n    event DebugListing(address indexed owner, uint256 amount, uint256 price);\r\n\r\n    function listStocks(uint256 _amount, uint256 _price) public {\r\n        listings[msg.sender] = StockListing(msg.sender, _amount, _price);\r\n        emit StockListed(msg.sender, _amount, _price);\r\n        emit DebugListing(msg.sender, _amount, _price);\r\n    }\r\n\r\n    function getStockListing(address _owner) public view returns (StockListing memory) {\r\n        return listings[_owner];\r\n    }\r\n}\r\n\r\n",
  "sourcePath": "C:\\Users\\Hassan\\Documents\\BLOCK2\\contracts\\ListStocks.sol",
  "compiler": {
    "name": "solc",
    "version": "0.8.13+commit.abaa5c0e.Emscripten.clang"
  },
  "schemaVersion": "3.4.16",
  "updatedAt": "2024-05-20T01:38:56.920Z",
  "networkType": "ethereum",
  "devdoc": {
    "kind": "dev",
    "methods": {},
    "version": 1
  },
  "userdoc": {
    "kind": "user",
    "methods": {},
    "version": 1
  }
}